{
  "_format": "hh-sol-artifact-1",
  "contractName": "Count",
  "sourceName": "contracts/Count.sol",
  "abi": [
    {
      "anonymous": false,
      "inputs": [
        {
          "indexed": false,
          "internalType": "uint256",
          "name": "count",
          "type": "uint256"
        }
      ],
      "name": "decreased",
      "type": "event"
    },
    {
      "anonymous": false,
      "inputs": [
        {
          "indexed": false,
          "internalType": "uint256",
          "name": "count",
          "type": "uint256"
        }
      ],
      "name": "increased",
      "type": "event"
    },
    {
      "inputs": [],
      "name": "count",
      "outputs": [
        {
          "internalType": "uint256",
          "name": "",
          "type": "uint256"
        }
      ],
      "stateMutability": "view",
      "type": "function"
    },
    {
      "inputs": [],
      "name": "decreaseCount",
      "outputs": [],
      "stateMutability": "nonpayable",
      "type": "function"
    },
    {
      "inputs": [],
      "name": "increaseCount",
      "outputs": [],
      "stateMutability": "nonpayable",
      "type": "function"
    }
  ],
  "bytecode": "0x608060405234801561001057600080fd5b506102e8806100206000396000f3fe608060405234801561001057600080fd5b50600436106100415760003560e01c806306661abd14610046578063abd1b73d14610064578063e834cbb31461006e575b600080fd5b61004e610078565b60405161005b9190610183565b60405180910390f35b61006c61007e565b005b6100766100d2565b005b60005481565b600160008082825461009091906101cd565b925050819055507f92ec03bb85fd263430f3aa81ad5515479a48cc0468294da5112191a0fb2611a16000546040516100c89190610183565b60405180910390a1565b6000805411610116576040517f08c379a000000000000000000000000000000000000000000000000000000000815260040161010d9061025e565b60405180910390fd5b6001600080828254610128919061027e565b925050819055507fc9d5a0a3719e1c0e2f20c312e49814b19dc6c2bc5b6f8a6410c68e018c6e3ba56000546040516101609190610183565b60405180910390a1565b6000819050919050565b61017d8161016a565b82525050565b60006020820190506101986000830184610174565b92915050565b7f4e487b7100000000000000000000000000000000000000000000000000000000600052601160045260246000fd5b60006101d88261016a565b91506101e38361016a565b92508282019050808211156101fb576101fa61019e565b5b92915050565b600082825260208201905092915050565b7f436f756e742063616e6e6f74206265206c657373207468616e20300000000000600082015250565b6000610248601b83610201565b915061025382610212565b602082019050919050565b600060208201905081810360008301526102778161023b565b9050919050565b60006102898261016a565b91506102948361016a565b92508282039050818111156102ac576102ab61019e565b5b9291505056fea26469706673582212205e93ccf912a187d43155eca313a97a513afa1189475d862bff90b337b67f378264736f6c63430008110033",
  "linkReferences": {},
  "deployedLinkReferences": {}
}